{
  "contractName": "Election",
  "abi": [
    {
      "constant": true,
      "inputs": [],
      "name": "winnerParty",
      "outputs": [
        {
          "name": "",
          "type": "string"
        }
      ],
      "payable": false,
      "stateMutability": "view",
      "type": "function"
    },
    {
      "constant": true,
      "inputs": [],
      "name": "candidatesCount",
      "outputs": [
        {
          "name": "",
          "type": "uint256"
        }
      ],
      "payable": false,
      "stateMutability": "view",
      "type": "function"
    },
    {
      "constant": true,
      "inputs": [
        {
          "name": "",
          "type": "uint256"
        }
      ],
      "name": "candidates",
      "outputs": [
        {
          "name": "id",
          "type": "uint256"
        },
        {
          "name": "name",
          "type": "string"
        },
        {
          "name": "party",
          "type": "string"
        },
        {
          "name": "voteCount",
          "type": "uint256"
        }
      ],
      "payable": false,
      "stateMutability": "view",
      "type": "function"
    },
    {
      "constant": true,
      "inputs": [],
      "name": "winnerVote",
      "outputs": [
        {
          "name": "",
          "type": "uint256"
        }
      ],
      "payable": false,
      "stateMutability": "view",
      "type": "function"
    },
    {
      "constant": true,
      "inputs": [],
      "name": "resultsDeclared",
      "outputs": [
        {
          "name": "",
          "type": "bool"
        }
      ],
      "payable": false,
      "stateMutability": "view",
      "type": "function"
    },
    {
      "constant": true,
      "inputs": [
        {
          "name": "",
          "type": "address"
        }
      ],
      "name": "loggedUser",
      "outputs": [
        {
          "name": "",
          "type": "string"
        }
      ],
      "payable": false,
      "stateMutability": "view",
      "type": "function"
    },
    {
      "constant": true,
      "inputs": [
        {
          "name": "",
          "type": "address"
        }
      ],
      "name": "voters",
      "outputs": [
        {
          "name": "",
          "type": "bool"
        }
      ],
      "payable": false,
      "stateMutability": "view",
      "type": "function"
    },
    {
      "constant": true,
      "inputs": [],
      "name": "winner",
      "outputs": [
        {
          "name": "",
          "type": "string"
        }
      ],
      "payable": false,
      "stateMutability": "view",
      "type": "function"
    },
    {
      "inputs": [],
      "payable": false,
      "stateMutability": "nonpayable",
      "type": "constructor"
    },
    {
      "anonymous": false,
      "inputs": [
        {
          "indexed": true,
          "name": "_candidateId",
          "type": "uint256"
        }
      ],
      "name": "votedEvent",
      "type": "event"
    },
    {
      "anonymous": false,
      "inputs": [
        {
          "indexed": false,
          "name": "_name",
          "type": "string"
        }
      ],
      "name": "addEvent",
      "type": "event"
    },
    {
      "anonymous": false,
      "inputs": [],
      "name": "declareEvent",
      "type": "event"
    },
    {
      "anonymous": false,
      "inputs": [],
      "name": "loginEvent",
      "type": "event"
    },
    {
      "constant": false,
      "inputs": [
        {
          "name": "_name",
          "type": "string"
        },
        {
          "name": "_party",
          "type": "string"
        }
      ],
      "name": "addCandidate",
      "outputs": [],
      "payable": false,
      "stateMutability": "nonpayable",
      "type": "function"
    },
    {
      "constant": false,
      "inputs": [
        {
          "name": "_candidateId",
          "type": "uint256"
        }
      ],
      "name": "vote",
      "outputs": [],
      "payable": false,
      "stateMutability": "nonpayable",
      "type": "function"
    },
    {
      "constant": false,
      "inputs": [
        {
          "name": "_data",
          "type": "string"
        }
      ],
      "name": "loginUser",
      "outputs": [],
      "payable": false,
      "stateMutability": "nonpayable",
      "type": "function"
    },
    {
      "constant": false,
      "inputs": [],
      "name": "declare",
      "outputs": [],
      "payable": false,
      "stateMutability": "nonpayable",
      "type": "function"
    }
  ],
  "bytecode": "0x60806040526000600260006101000a81548160ff0219169083151502179055503480156200002c57600080fd5b50620000b26040805190810160405280600b81526020017f43616e64696461746520310000000000000000000000000000000000000000008152506040805190810160405280600781526020017f506172747920310000000000000000000000000000000000000000000000000081525062000247640100000000026401000000009004565b620001376040805190810160405280600b81526020017f43616e64696461746520320000000000000000000000000000000000000000008152506040805190810160405280600781526020017f506172747920320000000000000000000000000000000000000000000000000081525062000247640100000000026401000000009004565b620001bc6040805190810160405280600b81526020017f43616e64696461746520330000000000000000000000000000000000000000008152506040805190810160405280600781526020017f506172747920330000000000000000000000000000000000000000000000000081525062000247640100000000026401000000009004565b620002416040805190810160405280600b81526020017f43616e64696461746520340000000000000000000000000000000000000000008152506040805190810160405280600781526020017f506172747920340000000000000000000000000000000000000000000000000081525062000247640100000000026401000000009004565b6200043a565b60076000815480929190600101919050555060806040519081016040528060075481526020018381526020018281526020016000815250600360006007548152602001908152602001600020600082015181600001556020820151816001019080519060200190620002bb9291906200038b565b506040820151816002019080519060200190620002da9291906200038b565b50606082015181600301559050507ffeaa3394626e6980c250ba082b4a3faae2e1157d0edacfc7514538999dc023f8826040518080602001828103825283818151815260200191508051906020019080838360005b838110156200034c5780820151818401526020810190506200032f565b50505050905090810190601f1680156200037a5780820380516001836020036101000a031916815260200191505b509250505060405180910390a15050565b828054600181600116156101000203166002900490600052602060002090601f016020900481019282601f10620003ce57805160ff1916838001178555620003ff565b82800160010185558215620003ff579182015b82811115620003fe578251825591602001919060010190620003e1565b5b5090506200040e919062000412565b5090565b6200043791905b808211156200043357600081600090555060010162000419565b5090565b90565b61102a806200044a6000396000f3006080604052600436106100ba576000357c0100000000000000000000000000000000000000000000000000000000900463ffffffff1680630121b93f146100bf578063014f2a3b146100ec5780631c14ce5e1461017c57806326541b56146101e55780632d35a8a2146102945780633477ee2e146102bf578063495417f5146103df5780634ccde6881461040a578063965473bd1461042157806396fb833114610450578063a3ec138d1461050c578063dfbf53ae14610567575b600080fd5b3480156100cb57600080fd5b506100ea600480360381019080803590602001909291905050506105f7565b005b3480156100f857600080fd5b50610101610719565b6040518080602001828103825283818151815260200191508051906020019080838360005b83811015610141578082015181840152602081019050610126565b50505050905090810190601f16801561016e5780820380516001836020036101000a031916815260200191505b509250505060405180910390f35b34801561018857600080fd5b506101e3600480360381019080803590602001908201803590602001908080601f01602080910402602001604051908101604052809392919081815260200183838082843782019150505050505091929192905050506107b7565b005b3480156101f157600080fd5b50610292600480360381019080803590602001908201803590602001908080601f0160208091040260200160405190810160405280939291908181526020018383808284378201915050505050509192919290803590602001908201803590602001908080601f0160208091040260200160405190810160405280939291908181526020018383808284378201915050505050509192919290505050610892565b005b3480156102a057600080fd5b506102a96109cf565b6040518082815260200191505060405180910390f35b3480156102cb57600080fd5b506102ea600480360381019080803590602001909291905050506109d5565b604051808581526020018060200180602001848152602001838103835286818151815260200191508051906020019080838360005b8381101561033a57808201518184015260208101905061031f565b50505050905090810190601f1680156103675780820380516001836020036101000a031916815260200191505b50838103825285818151815260200191508051906020019080838360005b838110156103a0578082015181840152602081019050610385565b50505050905090810190601f1680156103cd5780820380516001836020036101000a031916815260200191505b50965050505050505060405180910390f35b3480156103eb57600080fd5b506103f4610b35565b6040518082815260200191505060405180910390f35b34801561041657600080fd5b5061041f610b3b565b005b34801561042d57600080fd5b50610436610cd1565b604051808215151515815260200191505060405180910390f35b34801561045c57600080fd5b50610491600480360381019080803573ffffffffffffffffffffffffffffffffffffffff169060200190929190505050610ce4565b6040518080602001828103825283818151815260200191508051906020019080838360005b838110156104d15780820151818401526020810190506104b6565b50505050905090810190601f1680156104fe5780820380516001836020036101000a031916815260200191505b509250505060405180910390f35b34801561051857600080fd5b5061054d600480360381019080803573ffffffffffffffffffffffffffffffffffffffff169060200190929190505050610d94565b604051808215151515815260200191505060405180910390f35b34801561057357600080fd5b5061057c610db4565b6040518080602001828103825283818151815260200191508051906020019080838360005b838110156105bc5780820151818401526020810190506105a1565b50505050905090810190601f1680156105e95780820380516001836020036101000a031916815260200191505b509250505060405180910390f35b6000803373ffffffffffffffffffffffffffffffffffffffff1673ffffffffffffffffffffffffffffffffffffffff16815260200190815260200160002060009054906101000a900460ff1615151561064f57600080fd5b60008111801561066157506007548111155b151561066c57600080fd5b60016000803373ffffffffffffffffffffffffffffffffffffffff1673ffffffffffffffffffffffffffffffffffffffff16815260200190815260200160002060006101000a81548160ff0219169083151502179055506003600082815260200190815260200160002060030160008154809291906001019190505550807ffff3c900d938d21d0990d786e819f29b8d05c1ef587b462b939609625b684b1660405160405180910390a250565b60058054600181600116156101000203166002900480601f0160208091040260200160405190810160405280929190818152602001828054600181600116156101000203166002900480156107af5780601f10610784576101008083540402835291602001916107af565b820191906000526020600020905b81548152906001019060200180831161079257829003601f168201915b505050505081565b6000803373ffffffffffffffffffffffffffffffffffffffff1673ffffffffffffffffffffffffffffffffffffffff16815260200190815260200160002060009054906101000a900460ff1615151561080f57600080fd5b80600160003373ffffffffffffffffffffffffffffffffffffffff1673ffffffffffffffffffffffffffffffffffffffff1681526020019081526020016000209080519060200190610862929190610e52565b507fdc6ea1817380997e1716b06fe44f555e5a79c5374cb1745ffa7d46ad9a8210fe60405160405180910390a150565b60076000815480929190600101919050555060806040519081016040528060075481526020018381526020018281526020016000815250600360006007548152602001908152602001600020600082015181600001556020820151816001019080519060200190610904929190610ed2565b506040820151816002019080519060200190610921929190610ed2565b50606082015181600301559050507ffeaa3394626e6980c250ba082b4a3faae2e1157d0edacfc7514538999dc023f8826040518080602001828103825283818151815260200191508051906020019080838360005b83811015610991578082015181840152602081019050610976565b50505050905090810190601f1680156109be5780820380516001836020036101000a031916815260200191505b509250505060405180910390a15050565b60075481565b6003602052806000526040600020600091509050806000015490806001018054600181600116156101000203166002900480601f016020809104026020016040519081016040528092919081815260200182805460018160011615610100020316600290048015610a875780601f10610a5c57610100808354040283529160200191610a87565b820191906000526020600020905b815481529060010190602001808311610a6a57829003601f168201915b505050505090806002018054600181600116156101000203166002900480601f016020809104026020016040519081016040528092919081815260200182805460018160011615610100020316600290048015610b255780601f10610afa57610100808354040283529160200191610b25565b820191906000526020600020905b815481529060010190602001808311610b0857829003601f168201915b5050505050908060030154905084565b60065481565b60008060008060003373ffffffffffffffffffffffffffffffffffffffff1673ffffffffffffffffffffffffffffffffffffffff16815260200190815260200160002060009054906101000a900460ff16151515610b9857600080fd5b6001600260006101000a81548160ff0219169083151502179055506000925060019150600190505b60075481111515610c13576003600082815260200190815260200160002060030154831015610c0657600360008281526020019081526020016000206003015492508091505b8080600101915050610bc0565b6003600083815260200190815260200160002060010160049080546001816001161561010002031660029004610c4a929190610f52565b506003600083815260200190815260200160002060020160059080546001816001161561010002031660029004610c82929190610f52565b5060036000838152602001908152602001600020600301546006819055507f4261c2e20a70a449ce34d9be45bc3eb20791e618ec30d24b5dc9e6ac53ccc18a60405160405180910390a1505050565b600260009054906101000a900460ff1681565b60016020528060005260406000206000915090508054600181600116156101000203166002900480601f016020809104026020016040519081016040528092919081815260200182805460018160011615610100020316600290048015610d8c5780601f10610d6157610100808354040283529160200191610d8c565b820191906000526020600020905b815481529060010190602001808311610d6f57829003601f168201915b505050505081565b60006020528060005260406000206000915054906101000a900460ff1681565b60048054600181600116156101000203166002900480601f016020809104026020016040519081016040528092919081815260200182805460018160011615610100020316600290048015610e4a5780601f10610e1f57610100808354040283529160200191610e4a565b820191906000526020600020905b815481529060010190602001808311610e2d57829003601f168201915b505050505081565b828054600181600116156101000203166002900490600052602060002090601f016020900481019282601f10610e9357805160ff1916838001178555610ec1565b82800160010185558215610ec1579182015b82811115610ec0578251825591602001919060010190610ea5565b5b509050610ece9190610fd9565b5090565b828054600181600116156101000203166002900490600052602060002090601f016020900481019282601f10610f1357805160ff1916838001178555610f41565b82800160010185558215610f41579182015b82811115610f40578251825591602001919060010190610f25565b5b509050610f4e9190610fd9565b5090565b828054600181600116156101000203166002900490600052602060002090601f016020900481019282601f10610f8b5780548555610fc8565b82800160010185558215610fc857600052602060002091601f016020900482015b82811115610fc7578254825591600101919060010190610fac565b5b509050610fd59190610fd9565b5090565b610ffb91905b80821115610ff7576000816000905550600101610fdf565b5090565b905600a165627a7a723058203e74b0a9dca064c4fcc03413c95ed01056cb3b831b9bcd9a1043cf4a24879b770029",
  "source": "pragma solidity ^0.4.24;\n\ncontract Election {\n\n    struct Candidate {\n    \tuint id;\n    \tstring name;\n\t\tstring party;\n    \tuint voteCount;\n    }\n    mapping(address => bool)public voters;\n\tmapping(address => string)public loggedUser;\n\tbool public resultsDeclared = false;\n    mapping(uint => Candidate) public candidates;\n\tstring public winner;\n\tstring public winnerParty;\n\tuint public winnerVote;\n    uint public candidatesCount;\n\n    event votedEvent (\n    \tuint indexed _candidateId\n    \t);\n\tevent addEvent (\n    \tstring _name\n    \t);\n\tevent declareEvent();\n\tevent loginEvent();\n\n    constructor () public {\n   \t\taddCandidate(\"Candidate 1\",\"Party 1\");\n   \t\taddCandidate(\"Candidate 2\",\"Party 2\");\n\t\taddCandidate(\"Candidate 3\",\"Party 3\");\n   \t\taddCandidate(\"Candidate 4\",\"Party 4\");\n    }\n\n    function addCandidate (string memory _name,string memory _party) public {\n    \tcandidatesCount ++;\n    \tcandidates[candidatesCount] = Candidate(candidatesCount,_name,_party,0);\n\t\temit addEvent(_name);\n    }\n\n    function vote (uint _candidateId) public{\n    \trequire(!voters[msg.sender]);\n    \trequire(_candidateId >0 && _candidateId <= candidatesCount);\n    \tvoters[msg.sender] = true;\n    \tcandidates[_candidateId].voteCount++;\n    \temit votedEvent(_candidateId);\n    }\n\n\tfunction loginUser(string memory _data)public{\n\t\trequire(!voters[msg.sender]);\n\t\tloggedUser[msg.sender] = _data;\n\t\temit loginEvent();\n\t}\n\tfunction declare() public{\n\t\trequire(!voters[msg.sender]);\n    \tresultsDeclared = true;\n\t\tuint max = 0;\n\t\tuint id = 1;\n\t\tfor(uint i = 1;i <= candidatesCount;i++)\n\t\t{\n\t\t\tif(max < candidates[i].voteCount)\n\t\t\t\t{\n\t\t\t\t\tmax = candidates[i].voteCount;\n\t\t\t\t\tid = i;\n\t\t\t\t}\n\t\t}\n\t\twinner = candidates[id].name;\n\t\twinnerParty = candidates[id].party;\n\t\twinnerVote = candidates[id].voteCount;\n\t\temit declareEvent();\n\t}\n}",
  "sourcePath": "/home/rogith/Desktop/codefun/contracts/Election.sol",
  "compiler": {
    "name": "solc",
    "version": "0.4.25+commit.59dbf8f1.Emscripten.clang"
  },
  "schemaVersion": "2.0.2",
  "updatedAt": "2020-02-06T03:42:56.860Z"
}