{
  "contractName": "Election",
  "abi": [
    {
      "constant": true,
      "inputs": [],
      "name": "winnerParty",
      "outputs": [
        {
          "name": "",
          "type": "string"
        }
      ],
      "payable": false,
      "stateMutability": "view",
      "type": "function"
    },
    {
      "constant": true,
      "inputs": [],
      "name": "candidatesCount",
      "outputs": [
        {
          "name": "",
          "type": "uint256"
        }
      ],
      "payable": false,
      "stateMutability": "view",
      "type": "function"
    },
    {
      "constant": true,
      "inputs": [
        {
          "name": "",
          "type": "uint256"
        }
      ],
      "name": "candidates",
      "outputs": [
        {
          "name": "id",
          "type": "uint256"
        },
        {
          "name": "name",
          "type": "string"
        },
        {
          "name": "party",
          "type": "string"
        },
        {
          "name": "voteCount",
          "type": "uint256"
        }
      ],
      "payable": false,
      "stateMutability": "view",
      "type": "function"
    },
    {
      "constant": true,
      "inputs": [],
      "name": "winnerVote",
      "outputs": [
        {
          "name": "",
          "type": "uint256"
        }
      ],
      "payable": false,
      "stateMutability": "view",
      "type": "function"
    },
    {
      "constant": true,
      "inputs": [],
      "name": "resultsDeclared",
      "outputs": [
        {
          "name": "",
          "type": "bool"
        }
      ],
      "payable": false,
      "stateMutability": "view",
      "type": "function"
    },
    {
      "constant": true,
      "inputs": [
        {
          "name": "",
          "type": "address"
        }
      ],
      "name": "loggedUser",
      "outputs": [
        {
          "name": "",
          "type": "string"
        }
      ],
      "payable": false,
      "stateMutability": "view",
      "type": "function"
    },
    {
      "constant": true,
      "inputs": [
        {
          "name": "",
          "type": "address"
        }
      ],
      "name": "voters",
      "outputs": [
        {
          "name": "",
          "type": "bool"
        }
      ],
      "payable": false,
      "stateMutability": "view",
      "type": "function"
    },
    {
      "constant": true,
      "inputs": [],
      "name": "winner",
      "outputs": [
        {
          "name": "",
          "type": "string"
        }
      ],
      "payable": false,
      "stateMutability": "view",
      "type": "function"
    },
    {
      "inputs": [],
      "payable": false,
      "stateMutability": "nonpayable",
      "type": "constructor"
    },
    {
      "anonymous": false,
      "inputs": [
        {
          "indexed": true,
          "name": "_candidateId",
          "type": "uint256"
        }
      ],
      "name": "votedEvent",
      "type": "event"
    },
    {
      "anonymous": false,
      "inputs": [
        {
          "indexed": false,
          "name": "_name",
          "type": "string"
        }
      ],
      "name": "addEvent",
      "type": "event"
    },
    {
      "anonymous": false,
      "inputs": [],
      "name": "declareEvent",
      "type": "event"
    },
    {
      "anonymous": false,
      "inputs": [],
      "name": "loginEvent",
      "type": "event"
    },
    {
      "constant": false,
      "inputs": [
        {
          "name": "_name",
          "type": "string"
        },
        {
          "name": "_party",
          "type": "string"
        }
      ],
      "name": "addCandidate",
      "outputs": [],
      "payable": false,
      "stateMutability": "nonpayable",
      "type": "function"
    }
  ],
  "bytecode": "0x60806040526000600260006101000a81548160ff0219169083151502179055503480156200002c57600080fd5b50620000b26040805190810160405280600b81526020017f43616e64696461746520310000000000000000000000000000000000000000008152506040805190810160405280600781526020017f506172747920310000000000000000000000000000000000000000000000000081525062000247640100000000026401000000009004565b620001376040805190810160405280600b81526020017f43616e64696461746520320000000000000000000000000000000000000000008152506040805190810160405280600781526020017f506172747920320000000000000000000000000000000000000000000000000081525062000247640100000000026401000000009004565b620001bc6040805190810160405280600b81526020017f43616e64696461746520330000000000000000000000000000000000000000008152506040805190810160405280600781526020017f506172747920330000000000000000000000000000000000000000000000000081525062000247640100000000026401000000009004565b620002416040805190810160405280600b81526020017f43616e64696461746520340000000000000000000000000000000000000000008152506040805190810160405280600781526020017f506172747920340000000000000000000000000000000000000000000000000081525062000247640100000000026401000000009004565b6200043a565b60076000815480929190600101919050555060806040519081016040528060075481526020018381526020018281526020016000815250600360006007548152602001908152602001600020600082015181600001556020820151816001019080519060200190620002bb9291906200038b565b506040820151816002019080519060200190620002da9291906200038b565b50606082015181600301559050507ffeaa3394626e6980c250ba082b4a3faae2e1157d0edacfc7514538999dc023f8826040518080602001828103825283818151815260200191508051906020019080838360005b838110156200034c5780820151818401526020810190506200032f565b50505050905090810190601f1680156200037a5780820380516001836020036101000a031916815260200191505b509250505060405180910390a15050565b828054600181600116156101000203166002900490600052602060002090601f016020900481019282601f10620003ce57805160ff1916838001178555620003ff565b82800160010185558215620003ff579182015b82811115620003fe578251825591602001919060010190620003e1565b5b5090506200040e919062000412565b5090565b6200043791905b808211156200043357600081600090555060010162000419565b5090565b90565b610ac2806200044a6000396000f300608060405260043610610099576000357c0100000000000000000000000000000000000000000000000000000000900463ffffffff168063014f2a3b1461009e57806326541b561461012e5780632d35a8a2146101dd5780633477ee2e14610208578063495417f514610328578063965473bd1461035357806396fb833114610382578063a3ec138d1461043e578063dfbf53ae14610499575b600080fd5b3480156100aa57600080fd5b506100b3610529565b6040518080602001828103825283818151815260200191508051906020019080838360005b838110156100f35780820151818401526020810190506100d8565b50505050905090810190601f1680156101205780820380516001836020036101000a031916815260200191505b509250505060405180910390f35b34801561013a57600080fd5b506101db600480360381019080803590602001908201803590602001908080601f0160208091040260200160405190810160405280939291908181526020018383808284378201915050505050509192919290803590602001908201803590602001908080601f01602080910402602001604051908101604052809392919081815260200183838082843782019150505050505091929192905050506105c7565b005b3480156101e957600080fd5b506101f2610704565b6040518082815260200191505060405180910390f35b34801561021457600080fd5b506102336004803603810190808035906020019092919050505061070a565b604051808581526020018060200180602001848152602001838103835286818151815260200191508051906020019080838360005b83811015610283578082015181840152602081019050610268565b50505050905090810190601f1680156102b05780820380516001836020036101000a031916815260200191505b50838103825285818151815260200191508051906020019080838360005b838110156102e95780820151818401526020810190506102ce565b50505050905090810190601f1680156103165780820380516001836020036101000a031916815260200191505b50965050505050505060405180910390f35b34801561033457600080fd5b5061033d61086a565b6040518082815260200191505060405180910390f35b34801561035f57600080fd5b50610368610870565b604051808215151515815260200191505060405180910390f35b34801561038e57600080fd5b506103c3600480360381019080803573ffffffffffffffffffffffffffffffffffffffff169060200190929190505050610883565b6040518080602001828103825283818151815260200191508051906020019080838360005b838110156104035780820151818401526020810190506103e8565b50505050905090810190601f1680156104305780820380516001836020036101000a031916815260200191505b509250505060405180910390f35b34801561044a57600080fd5b5061047f600480360381019080803573ffffffffffffffffffffffffffffffffffffffff169060200190929190505050610933565b604051808215151515815260200191505060405180910390f35b3480156104a557600080fd5b506104ae610953565b6040518080602001828103825283818151815260200191508051906020019080838360005b838110156104ee5780820151818401526020810190506104d3565b50505050905090810190601f16801561051b5780820380516001836020036101000a031916815260200191505b509250505060405180910390f35b60058054600181600116156101000203166002900480601f0160208091040260200160405190810160405280929190818152602001828054600181600116156101000203166002900480156105bf5780601f10610594576101008083540402835291602001916105bf565b820191906000526020600020905b8154815290600101906020018083116105a257829003601f168201915b505050505081565b600760008154809291906001019190505550608060405190810160405280600754815260200183815260200182815260200160008152506003600060075481526020019081526020016000206000820151816000015560208201518160010190805190602001906106399291906109f1565b5060408201518160020190805190602001906106569291906109f1565b50606082015181600301559050507ffeaa3394626e6980c250ba082b4a3faae2e1157d0edacfc7514538999dc023f8826040518080602001828103825283818151815260200191508051906020019080838360005b838110156106c65780820151818401526020810190506106ab565b50505050905090810190601f1680156106f35780820380516001836020036101000a031916815260200191505b509250505060405180910390a15050565b60075481565b6003602052806000526040600020600091509050806000015490806001018054600181600116156101000203166002900480601f0160208091040260200160405190810160405280929190818152602001828054600181600116156101000203166002900480156107bc5780601f10610791576101008083540402835291602001916107bc565b820191906000526020600020905b81548152906001019060200180831161079f57829003601f168201915b505050505090806002018054600181600116156101000203166002900480601f01602080910402602001604051908101604052809291908181526020018280546001816001161561010002031660029004801561085a5780601f1061082f5761010080835404028352916020019161085a565b820191906000526020600020905b81548152906001019060200180831161083d57829003601f168201915b5050505050908060030154905084565b60065481565b600260009054906101000a900460ff1681565b60016020528060005260406000206000915090508054600181600116156101000203166002900480601f01602080910402602001604051908101604052809291908181526020018280546001816001161561010002031660029004801561092b5780601f106109005761010080835404028352916020019161092b565b820191906000526020600020905b81548152906001019060200180831161090e57829003601f168201915b505050505081565b60006020528060005260406000206000915054906101000a900460ff1681565b60048054600181600116156101000203166002900480601f0160208091040260200160405190810160405280929190818152602001828054600181600116156101000203166002900480156109e95780601f106109be576101008083540402835291602001916109e9565b820191906000526020600020905b8154815290600101906020018083116109cc57829003601f168201915b505050505081565b828054600181600116156101000203166002900490600052602060002090601f016020900481019282601f10610a3257805160ff1916838001178555610a60565b82800160010185558215610a60579182015b82811115610a5f578251825591602001919060010190610a44565b5b509050610a6d9190610a71565b5090565b610a9391905b80821115610a8f576000816000905550600101610a77565b5090565b905600a165627a7a723058203e9864cf78ab72df8005bc2b17e7408fa8256d2c27b632c7f5c1fb4521d159a60029",
  "source": "pragma solidity ^0.4.24;\n\ncontract Election {\n\n    struct Candidate {\n    \tuint id;\n    \tstring name;\n\t\tstring party;\n    \tuint voteCount;\n    }\n    mapping(address => bool)public voters;\n\tmapping(address => string)public loggedUser;\n\tbool public resultsDeclared = false;\n    mapping(uint => Candidate) public candidates;\n\tstring public winner;\n\tstring public winnerParty;\n\tuint public winnerVote;\n    uint public candidatesCount;\n\n    event votedEvent (\n    \tuint indexed _candidateId\n    \t);\n\tevent addEvent (\n    \tstring _name\n    \t);\n\tevent declareEvent();\n\tevent loginEvent();\n\n    constructor () public {\n   \t\taddCandidate(\"Candidate 1\",\"Party 1\");\n   \t\taddCandidate(\"Candidate 2\",\"Party 2\");\n\t\taddCandidate(\"Candidate 3\",\"Party 3\");\n   \t\taddCandidate(\"Candidate 4\",\"Party 4\");\n    }\n\n    function addCandidate (string memory _name,string memory _party) public {\n    \tcandidatesCount ++;\n    \tcandidates[candidatesCount] = Candidate(candidatesCount,_name,_party,0);\n\t\temit addEvent(_name);\n    }\n\n}",
  "sourcePath": "/home/rogith/Desktop/Evoting/contracts/Election.sol",
  "compiler": {
    "name": "solc",
    "version": "0.4.26+commit.4563c3fc.Emscripten.clang"
  },
  "schemaVersion": "3.3.0",
  "updatedAt": "2020-11-01T16:09:52.495Z",
  "networkType": "ethereum",
  "devdoc": {
    "methods": {}
  },
  "userdoc": {
    "methods": {}
  }
}