{
  "contractName": "Election",
  "abi": [
    {
      "constant": true,
      "inputs": [],
      "name": "winnerParty",
      "outputs": [
        {
          "name": "",
          "type": "string"
        }
      ],
      "payable": false,
      "stateMutability": "view",
      "type": "function"
    },
    {
      "constant": true,
      "inputs": [],
      "name": "candidatesCount",
      "outputs": [
        {
          "name": "",
          "type": "uint256"
        }
      ],
      "payable": false,
      "stateMutability": "view",
      "type": "function"
    },
    {
      "constant": true,
      "inputs": [
        {
          "name": "",
          "type": "uint256"
        }
      ],
      "name": "candidates",
      "outputs": [
        {
          "name": "id",
          "type": "uint256"
        },
        {
          "name": "name",
          "type": "string"
        },
        {
          "name": "party",
          "type": "string"
        },
        {
          "name": "voteCount",
          "type": "uint256"
        }
      ],
      "payable": false,
      "stateMutability": "view",
      "type": "function"
    },
    {
      "constant": true,
      "inputs": [],
      "name": "winnerVote",
      "outputs": [
        {
          "name": "",
          "type": "uint256"
        }
      ],
      "payable": false,
      "stateMutability": "view",
      "type": "function"
    },
    {
      "constant": true,
      "inputs": [],
      "name": "resultsDeclared",
      "outputs": [
        {
          "name": "",
          "type": "bool"
        }
      ],
      "payable": false,
      "stateMutability": "view",
      "type": "function"
    },
    {
      "constant": true,
      "inputs": [
        {
          "name": "",
          "type": "address"
        }
      ],
      "name": "loggedUser",
      "outputs": [
        {
          "name": "",
          "type": "string"
        }
      ],
      "payable": false,
      "stateMutability": "view",
      "type": "function"
    },
    {
      "constant": true,
      "inputs": [
        {
          "name": "",
          "type": "address"
        }
      ],
      "name": "voters",
      "outputs": [
        {
          "name": "",
          "type": "bool"
        }
      ],
      "payable": false,
      "stateMutability": "view",
      "type": "function"
    },
    {
      "constant": true,
      "inputs": [],
      "name": "winner",
      "outputs": [
        {
          "name": "",
          "type": "string"
        }
      ],
      "payable": false,
      "stateMutability": "view",
      "type": "function"
    },
    {
      "inputs": [],
      "payable": false,
      "stateMutability": "nonpayable",
      "type": "constructor"
    },
    {
      "anonymous": false,
      "inputs": [
        {
          "indexed": true,
          "name": "_candidateId",
          "type": "uint256"
        }
      ],
      "name": "votedEvent",
      "type": "event"
    },
    {
      "anonymous": false,
      "inputs": [
        {
          "indexed": false,
          "name": "_name",
          "type": "string"
        }
      ],
      "name": "addEvent",
      "type": "event"
    },
    {
      "anonymous": false,
      "inputs": [],
      "name": "declareEvent",
      "type": "event"
    },
    {
      "anonymous": false,
      "inputs": [],
      "name": "loginEvent",
      "type": "event"
    },
    {
      "constant": false,
      "inputs": [
        {
          "name": "_name",
          "type": "string"
        },
        {
          "name": "_party",
          "type": "string"
        }
      ],
      "name": "addCandidate",
      "outputs": [],
      "payable": false,
      "stateMutability": "nonpayable",
      "type": "function"
    },
    {
      "constant": false,
      "inputs": [
        {
          "name": "_data",
          "type": "string"
        }
      ],
      "name": "loginUser",
      "outputs": [],
      "payable": false,
      "stateMutability": "nonpayable",
      "type": "function"
    }
  ],
  "bytecode": "0x60806040526000600260006101000a81548160ff0219169083151502179055503480156200002c57600080fd5b50620000b26040805190810160405280600b81526020017f43616e64696461746520310000000000000000000000000000000000000000008152506040805190810160405280600781526020017f506172747920310000000000000000000000000000000000000000000000000081525062000247640100000000026401000000009004565b620001376040805190810160405280600b81526020017f43616e64696461746520320000000000000000000000000000000000000000008152506040805190810160405280600781526020017f506172747920320000000000000000000000000000000000000000000000000081525062000247640100000000026401000000009004565b620001bc6040805190810160405280600b81526020017f43616e64696461746520330000000000000000000000000000000000000000008152506040805190810160405280600781526020017f506172747920330000000000000000000000000000000000000000000000000081525062000247640100000000026401000000009004565b620002416040805190810160405280600b81526020017f43616e64696461746520340000000000000000000000000000000000000000008152506040805190810160405280600781526020017f506172747920340000000000000000000000000000000000000000000000000081525062000247640100000000026401000000009004565b6200043a565b60076000815480929190600101919050555060806040519081016040528060075481526020018381526020018281526020016000815250600360006007548152602001908152602001600020600082015181600001556020820151816001019080519060200190620002bb9291906200038b565b506040820151816002019080519060200190620002da9291906200038b565b50606082015181600301559050507ffeaa3394626e6980c250ba082b4a3faae2e1157d0edacfc7514538999dc023f8826040518080602001828103825283818151815260200191508051906020019080838360005b838110156200034c5780820151818401526020810190506200032f565b50505050905090810190601f1680156200037a5780820380516001836020036101000a031916815260200191505b509250505060405180910390a15050565b828054600181600116156101000203166002900490600052602060002090601f016020900481019282601f10620003ce57805160ff1916838001178555620003ff565b82800160010185558215620003ff579182015b82811115620003fe578251825591602001919060010190620003e1565b5b5090506200040e919062000412565b5090565b6200043791905b808211156200043357600081600090555060010162000419565b5090565b90565b610c91806200044a6000396000f3006080604052600436106100a4576000357c0100000000000000000000000000000000000000000000000000000000900463ffffffff168063014f2a3b146100a95780631c14ce5e1461013957806326541b56146101a25780632d35a8a2146102515780633477ee2e1461027c578063495417f51461039c578063965473bd146103c757806396fb8331146103f6578063a3ec138d146104b2578063dfbf53ae1461050d575b600080fd5b3480156100b557600080fd5b506100be61059d565b6040518080602001828103825283818151815260200191508051906020019080838360005b838110156100fe5780820151818401526020810190506100e3565b50505050905090810190601f16801561012b5780820380516001836020036101000a031916815260200191505b509250505060405180910390f35b34801561014557600080fd5b506101a0600480360381019080803590602001908201803590602001908080601f016020809104026020016040519081016040528093929190818152602001838380828437820191505050505050919291929050505061063b565b005b3480156101ae57600080fd5b5061024f600480360381019080803590602001908201803590602001908080601f0160208091040260200160405190810160405280939291908181526020018383808284378201915050505050509192919290803590602001908201803590602001908080601f0160208091040260200160405190810160405280939291908181526020018383808284378201915050505050509192919290505050610716565b005b34801561025d57600080fd5b50610266610853565b6040518082815260200191505060405180910390f35b34801561028857600080fd5b506102a760048036038101908080359060200190929190505050610859565b604051808581526020018060200180602001848152602001838103835286818151815260200191508051906020019080838360005b838110156102f75780820151818401526020810190506102dc565b50505050905090810190601f1680156103245780820380516001836020036101000a031916815260200191505b50838103825285818151815260200191508051906020019080838360005b8381101561035d578082015181840152602081019050610342565b50505050905090810190601f16801561038a5780820380516001836020036101000a031916815260200191505b50965050505050505060405180910390f35b3480156103a857600080fd5b506103b16109b9565b6040518082815260200191505060405180910390f35b3480156103d357600080fd5b506103dc6109bf565b604051808215151515815260200191505060405180910390f35b34801561040257600080fd5b50610437600480360381019080803573ffffffffffffffffffffffffffffffffffffffff1690602001909291905050506109d2565b6040518080602001828103825283818151815260200191508051906020019080838360005b8381101561047757808201518184015260208101905061045c565b50505050905090810190601f1680156104a45780820380516001836020036101000a031916815260200191505b509250505060405180910390f35b3480156104be57600080fd5b506104f3600480360381019080803573ffffffffffffffffffffffffffffffffffffffff169060200190929190505050610a82565b604051808215151515815260200191505060405180910390f35b34801561051957600080fd5b50610522610aa2565b6040518080602001828103825283818151815260200191508051906020019080838360005b83811015610562578082015181840152602081019050610547565b50505050905090810190601f16801561058f5780820380516001836020036101000a031916815260200191505b509250505060405180910390f35b60058054600181600116156101000203166002900480601f0160208091040260200160405190810160405280929190818152602001828054600181600116156101000203166002900480156106335780601f1061060857610100808354040283529160200191610633565b820191906000526020600020905b81548152906001019060200180831161061657829003601f168201915b505050505081565b6000803373ffffffffffffffffffffffffffffffffffffffff1673ffffffffffffffffffffffffffffffffffffffff16815260200190815260200160002060009054906101000a900460ff1615151561069357600080fd5b80600160003373ffffffffffffffffffffffffffffffffffffffff1673ffffffffffffffffffffffffffffffffffffffff16815260200190815260200160002090805190602001906106e6929190610b40565b507fdc6ea1817380997e1716b06fe44f555e5a79c5374cb1745ffa7d46ad9a8210fe60405160405180910390a150565b60076000815480929190600101919050555060806040519081016040528060075481526020018381526020018281526020016000815250600360006007548152602001908152602001600020600082015181600001556020820151816001019080519060200190610788929190610bc0565b5060408201518160020190805190602001906107a5929190610bc0565b50606082015181600301559050507ffeaa3394626e6980c250ba082b4a3faae2e1157d0edacfc7514538999dc023f8826040518080602001828103825283818151815260200191508051906020019080838360005b838110156108155780820151818401526020810190506107fa565b50505050905090810190601f1680156108425780820380516001836020036101000a031916815260200191505b509250505060405180910390a15050565b60075481565b6003602052806000526040600020600091509050806000015490806001018054600181600116156101000203166002900480601f01602080910402602001604051908101604052809291908181526020018280546001816001161561010002031660029004801561090b5780601f106108e05761010080835404028352916020019161090b565b820191906000526020600020905b8154815290600101906020018083116108ee57829003601f168201915b505050505090806002018054600181600116156101000203166002900480601f0160208091040260200160405190810160405280929190818152602001828054600181600116156101000203166002900480156109a95780601f1061097e576101008083540402835291602001916109a9565b820191906000526020600020905b81548152906001019060200180831161098c57829003601f168201915b5050505050908060030154905084565b60065481565b600260009054906101000a900460ff1681565b60016020528060005260406000206000915090508054600181600116156101000203166002900480601f016020809104026020016040519081016040528092919081815260200182805460018160011615610100020316600290048015610a7a5780601f10610a4f57610100808354040283529160200191610a7a565b820191906000526020600020905b815481529060010190602001808311610a5d57829003601f168201915b505050505081565b60006020528060005260406000206000915054906101000a900460ff1681565b60048054600181600116156101000203166002900480601f016020809104026020016040519081016040528092919081815260200182805460018160011615610100020316600290048015610b385780601f10610b0d57610100808354040283529160200191610b38565b820191906000526020600020905b815481529060010190602001808311610b1b57829003601f168201915b505050505081565b828054600181600116156101000203166002900490600052602060002090601f016020900481019282601f10610b8157805160ff1916838001178555610baf565b82800160010185558215610baf579182015b82811115610bae578251825591602001919060010190610b93565b5b509050610bbc9190610c40565b5090565b828054600181600116156101000203166002900490600052602060002090601f016020900481019282601f10610c0157805160ff1916838001178555610c2f565b82800160010185558215610c2f579182015b82811115610c2e578251825591602001919060010190610c13565b5b509050610c3c9190610c40565b5090565b610c6291905b80821115610c5e576000816000905550600101610c46565b5090565b905600a165627a7a723058203934e9092bc90551b51a5d9202bebd6f20278f0808d004b5c7f5d6efd9964fe20029",
  "source": "pragma solidity ^0.4.24;\n\ncontract Election {\n\n    struct Candidate {\n    \tuint id;\n    \tstring name;\n\t\tstring party;\n    \tuint voteCount;\n    }\n    mapping(address => bool)public voters;\n\tmapping(address => string)public loggedUser;\n\tbool public resultsDeclared = false;\n    mapping(uint => Candidate) public candidates;\n\tstring public winner;\n\tstring public winnerParty;\n\tuint public winnerVote;\n    uint public candidatesCount;\n\n    event votedEvent (\n    \tuint indexed _candidateId\n    \t);\n\tevent addEvent (\n    \tstring _name\n    \t);\n\tevent declareEvent();\n\tevent loginEvent();\n\n    constructor () public {\n   \t\taddCandidate(\"Candidate 1\",\"Party 1\");\n   \t\taddCandidate(\"Candidate 2\",\"Party 2\");\n\t\taddCandidate(\"Candidate 3\",\"Party 3\");\n   \t\taddCandidate(\"Candidate 4\",\"Party 4\");\n    }\n\n    function addCandidate (string memory _name,string memory _party) public {\n    \tcandidatesCount ++;\n    \tcandidates[candidatesCount] = Candidate(candidatesCount,_name,_party,0);\n\t\temit addEvent(_name);\n    }\n\n\tfunction loginUser(string memory _data)public{\n\t\trequire(!voters[msg.sender]);\n\t\tloggedUser[msg.sender] = _data;\n\t\temit loginEvent();\n\t}\n\t\n}",
  "sourcePath": "/home/rogith/Desktop/Evoting/contracts/Election.sol",
  "compiler": {
    "name": "solc",
    "version": "0.4.26+commit.4563c3fc.Emscripten.clang"
  },
  "schemaVersion": "3.3.0",
  "updatedAt": "2020-11-02T09:04:31.891Z",
  "networkType": "ethereum",
  "devdoc": {
    "methods": {}
  },
  "userdoc": {
    "methods": {}
  }
}