{
  "contractName": "Election",
  "abi": [
    {
      "constant": true,
      "inputs": [],
      "name": "winnerParty",
      "outputs": [
        {
          "name": "",
          "type": "string"
        }
      ],
      "payable": false,
      "stateMutability": "view",
      "type": "function"
    },
    {
      "constant": true,
      "inputs": [],
      "name": "candidatesCount",
      "outputs": [
        {
          "name": "",
          "type": "uint256"
        }
      ],
      "payable": false,
      "stateMutability": "view",
      "type": "function"
    },
    {
      "constant": true,
      "inputs": [
        {
          "name": "",
          "type": "uint256"
        }
      ],
      "name": "candidates",
      "outputs": [
        {
          "name": "id",
          "type": "uint256"
        },
        {
          "name": "name",
          "type": "string"
        },
        {
          "name": "party",
          "type": "string"
        },
        {
          "name": "voteCount",
          "type": "uint256"
        }
      ],
      "payable": false,
      "stateMutability": "view",
      "type": "function"
    },
    {
      "constant": true,
      "inputs": [],
      "name": "winnerVote",
      "outputs": [
        {
          "name": "",
          "type": "uint256"
        }
      ],
      "payable": false,
      "stateMutability": "view",
      "type": "function"
    },
    {
      "constant": true,
      "inputs": [],
      "name": "resultsDeclared",
      "outputs": [
        {
          "name": "",
          "type": "bool"
        }
      ],
      "payable": false,
      "stateMutability": "view",
      "type": "function"
    },
    {
      "constant": true,
      "inputs": [
        {
          "name": "",
          "type": "address"
        }
      ],
      "name": "voters",
      "outputs": [
        {
          "name": "",
          "type": "bool"
        }
      ],
      "payable": false,
      "stateMutability": "view",
      "type": "function"
    },
    {
      "constant": true,
      "inputs": [],
      "name": "winner",
      "outputs": [
        {
          "name": "",
          "type": "string"
        }
      ],
      "payable": false,
      "stateMutability": "view",
      "type": "function"
    },
    {
      "inputs": [],
      "payable": false,
      "stateMutability": "nonpayable",
      "type": "constructor"
    },
    {
      "anonymous": false,
      "inputs": [
        {
          "indexed": true,
          "name": "_candidateId",
          "type": "uint256"
        }
      ],
      "name": "votedEvent",
      "type": "event"
    },
    {
      "anonymous": false,
      "inputs": [
        {
          "indexed": false,
          "name": "_name",
          "type": "string"
        }
      ],
      "name": "addEvent",
      "type": "event"
    },
    {
      "anonymous": false,
      "inputs": [],
      "name": "declareEvent",
      "type": "event"
    },
    {
      "constant": false,
      "inputs": [
        {
          "name": "_name",
          "type": "string"
        },
        {
          "name": "_party",
          "type": "string"
        }
      ],
      "name": "addCandidate",
      "outputs": [],
      "payable": false,
      "stateMutability": "nonpayable",
      "type": "function"
    },
    {
      "constant": false,
      "inputs": [
        {
          "name": "_candidateId",
          "type": "uint256"
        }
      ],
      "name": "vote",
      "outputs": [],
      "payable": false,
      "stateMutability": "nonpayable",
      "type": "function"
    },
    {
      "constant": false,
      "inputs": [],
      "name": "declare",
      "outputs": [],
      "payable": false,
      "stateMutability": "nonpayable",
      "type": "function"
    }
  ],
  "bytecode": "0x60806040526000600160006101000a81548160ff0219169083151502179055503480156200002c57600080fd5b50620000b26040805190810160405280600b81526020017f43616e64696461746520310000000000000000000000000000000000000000008152506040805190810160405280600781526020017f506172747920310000000000000000000000000000000000000000000000000081525062000247640100000000026401000000009004565b620001376040805190810160405280600b81526020017f43616e64696461746520320000000000000000000000000000000000000000008152506040805190810160405280600781526020017f506172747920320000000000000000000000000000000000000000000000000081525062000247640100000000026401000000009004565b620001bc6040805190810160405280600b81526020017f43616e64696461746520330000000000000000000000000000000000000000008152506040805190810160405280600781526020017f506172747920330000000000000000000000000000000000000000000000000081525062000247640100000000026401000000009004565b620002416040805190810160405280600b81526020017f43616e64696461746520340000000000000000000000000000000000000000008152506040805190810160405280600781526020017f506172747920340000000000000000000000000000000000000000000000000081525062000247640100000000026401000000009004565b6200043a565b60066000815480929190600101919050555060806040519081016040528060065481526020018381526020018281526020016000815250600260006006548152602001908152602001600020600082015181600001556020820151816001019080519060200190620002bb9291906200038b565b506040820151816002019080519060200190620002da9291906200038b565b50606082015181600301559050507ffeaa3394626e6980c250ba082b4a3faae2e1157d0edacfc7514538999dc023f8826040518080602001828103825283818151815260200191508051906020019080838360005b838110156200034c5780820151818401526020810190506200032f565b50505050905090810190601f1680156200037a5780820380516001836020036101000a031916815260200191505b509250505060405180910390a15050565b828054600181600116156101000203166002900490600052602060002090601f016020900481019282601f10620003ce57805160ff1916838001178555620003ff565b82800160010185558215620003ff579182015b82811115620003fe578251825591602001919060010190620003e1565b5b5090506200040e919062000412565b5090565b6200043791905b808211156200043357600081600090555060010162000419565b5090565b90565b610ce3806200044a6000396000f3006080604052600436106100a4576000357c0100000000000000000000000000000000000000000000000000000000900463ffffffff1680630121b93f146100a9578063014f2a3b146100d657806326541b56146101665780632d35a8a2146102155780633477ee2e14610240578063495417f5146103605780634ccde6881461038b578063965473bd146103a2578063a3ec138d146103d1578063dfbf53ae1461042c575b600080fd5b3480156100b557600080fd5b506100d4600480360381019080803590602001909291905050506104bc565b005b3480156100e257600080fd5b506100eb6105de565b6040518080602001828103825283818151815260200191508051906020019080838360005b8381101561012b578082015181840152602081019050610110565b50505050905090810190601f1680156101585780820380516001836020036101000a031916815260200191505b509250505060405180910390f35b34801561017257600080fd5b50610213600480360381019080803590602001908201803590602001908080601f0160208091040260200160405190810160405280939291908181526020018383808284378201915050505050509192919290803590602001908201803590602001908080601f016020809104026020016040519081016040528093929190818152602001838380828437820191505050505050919291929050505061067c565b005b34801561022157600080fd5b5061022a6107b9565b6040518082815260200191505060405180910390f35b34801561024c57600080fd5b5061026b600480360381019080803590602001909291905050506107bf565b604051808581526020018060200180602001848152602001838103835286818151815260200191508051906020019080838360005b838110156102bb5780820151818401526020810190506102a0565b50505050905090810190601f1680156102e85780820380516001836020036101000a031916815260200191505b50838103825285818151815260200191508051906020019080838360005b83811015610321578082015181840152602081019050610306565b50505050905090810190601f16801561034e5780820380516001836020036101000a031916815260200191505b50965050505050505060405180910390f35b34801561036c57600080fd5b5061037561091f565b6040518082815260200191505060405180910390f35b34801561039757600080fd5b506103a0610925565b005b3480156103ae57600080fd5b506103b7610aba565b604051808215151515815260200191505060405180910390f35b3480156103dd57600080fd5b50610412600480360381019080803573ffffffffffffffffffffffffffffffffffffffff169060200190929190505050610acd565b604051808215151515815260200191505060405180910390f35b34801561043857600080fd5b50610441610aed565b6040518080602001828103825283818151815260200191508051906020019080838360005b83811015610481578082015181840152602081019050610466565b50505050905090810190601f1680156104ae5780820380516001836020036101000a031916815260200191505b509250505060405180910390f35b6000803373ffffffffffffffffffffffffffffffffffffffff1673ffffffffffffffffffffffffffffffffffffffff16815260200190815260200160002060009054906101000a900460ff1615151561051457600080fd5b60008111801561052657506006548111155b151561053157600080fd5b60016000803373ffffffffffffffffffffffffffffffffffffffff1673ffffffffffffffffffffffffffffffffffffffff16815260200190815260200160002060006101000a81548160ff0219169083151502179055506002600082815260200190815260200160002060030160008154809291906001019190505550807ffff3c900d938d21d0990d786e819f29b8d05c1ef587b462b939609625b684b1660405160405180910390a250565b60048054600181600116156101000203166002900480601f0160208091040260200160405190810160405280929190818152602001828054600181600116156101000203166002900480156106745780601f1061064957610100808354040283529160200191610674565b820191906000526020600020905b81548152906001019060200180831161065757829003601f168201915b505050505081565b600660008154809291906001019190505550608060405190810160405280600654815260200183815260200182815260200160008152506002600060065481526020019081526020016000206000820151816000015560208201518160010190805190602001906106ee929190610b8b565b50604082015181600201908051906020019061070b929190610b8b565b50606082015181600301559050507ffeaa3394626e6980c250ba082b4a3faae2e1157d0edacfc7514538999dc023f8826040518080602001828103825283818151815260200191508051906020019080838360005b8381101561077b578082015181840152602081019050610760565b50505050905090810190601f1680156107a85780820380516001836020036101000a031916815260200191505b509250505060405180910390a15050565b60065481565b6002602052806000526040600020600091509050806000015490806001018054600181600116156101000203166002900480601f0160208091040260200160405190810160405280929190818152602001828054600181600116156101000203166002900480156108715780601f1061084657610100808354040283529160200191610871565b820191906000526020600020905b81548152906001019060200180831161085457829003601f168201915b505050505090806002018054600181600116156101000203166002900480601f01602080910402602001604051908101604052809291908181526020018280546001816001161561010002031660029004801561090f5780601f106108e45761010080835404028352916020019161090f565b820191906000526020600020905b8154815290600101906020018083116108f257829003601f168201915b5050505050908060030154905084565b60055481565b60008060008060003373ffffffffffffffffffffffffffffffffffffffff1673ffffffffffffffffffffffffffffffffffffffff16815260200190815260200160002060009054906101000a900460ff1615151561098257600080fd5b60018060006101000a81548160ff0219169083151502179055506000925060019150600190505b600654811115156109fc5760026000828152602001908152602001600020600301548310156109ef57600260008281526020019081526020016000206003015492508091505b80806001019150506109a9565b6002600083815260200190815260200160002060010160039080546001816001161561010002031660029004610a33929190610c0b565b506002600083815260200190815260200160002060020160049080546001816001161561010002031660029004610a6b929190610c0b565b5060026000838152602001908152602001600020600301546005819055507f4261c2e20a70a449ce34d9be45bc3eb20791e618ec30d24b5dc9e6ac53ccc18a60405160405180910390a1505050565b600160009054906101000a900460ff1681565b60006020528060005260406000206000915054906101000a900460ff1681565b60038054600181600116156101000203166002900480601f016020809104026020016040519081016040528092919081815260200182805460018160011615610100020316600290048015610b835780601f10610b5857610100808354040283529160200191610b83565b820191906000526020600020905b815481529060010190602001808311610b6657829003601f168201915b505050505081565b828054600181600116156101000203166002900490600052602060002090601f016020900481019282601f10610bcc57805160ff1916838001178555610bfa565b82800160010185558215610bfa579182015b82811115610bf9578251825591602001919060010190610bde565b5b509050610c079190610c92565b5090565b828054600181600116156101000203166002900490600052602060002090601f016020900481019282601f10610c445780548555610c81565b82800160010185558215610c8157600052602060002091601f016020900482015b82811115610c80578254825591600101919060010190610c65565b5b509050610c8e9190610c92565b5090565b610cb491905b80821115610cb0576000816000905550600101610c98565b5090565b905600a165627a7a723058205ca1e8cc7d5a2ff0288a749bac3fef66d8a4994777b9950778a05f3907757fcc0029",
  "source": "pragma solidity ^0.4.24;\n\ncontract Election {\n\n    struct Candidate {\n    \tuint id;\n    \tstring name;\n\t\tstring party;\n    \tuint voteCount;\n    }\n    mapping(address => bool)public voters;\n\tbool public resultsDeclared = false;\n    mapping(uint => Candidate) public candidates;\n\tstring public winner;\n\tstring public winnerParty;\n\tuint public winnerVote;\n    uint public candidatesCount;\n\n    event votedEvent (\n    \tuint indexed _candidateId\n    \t);\n\tevent addEvent (\n    \tstring _name\n    \t);\n\tevent declareEvent();\n\n    constructor () public {\n   \t\taddCandidate(\"Candidate 1\",\"Party 1\");\n   \t\taddCandidate(\"Candidate 2\",\"Party 2\");\n\t\taddCandidate(\"Candidate 3\",\"Party 3\");\n   \t\taddCandidate(\"Candidate 4\",\"Party 4\");\n    }\n\n    function addCandidate (string memory _name,string memory _party) public {\n    \tcandidatesCount ++;\n    \tcandidates[candidatesCount] = Candidate(candidatesCount,_name,_party,0);\n\t\temit addEvent(_name);\n    }\n\n    function vote (uint _candidateId) public{\n    \trequire(!voters[msg.sender]);\n    \trequire(_candidateId >0 && _candidateId <= candidatesCount);\n    \tvoters[msg.sender] = true;\n    \tcandidates[_candidateId].voteCount++;\n    \temit votedEvent(_candidateId);\n    }\n\n\tfunction declare() public{\n\t\trequire(!voters[msg.sender]);\n    \tresultsDeclared = true;\n\t\tuint max = 0;\n\t\tuint id = 1;\n\t\tfor(uint i = 1;i <= candidatesCount;i++)\n\t\t{\n\t\t\tif(max < candidates[i].voteCount)\n\t\t\t\t{\n\t\t\t\t\tmax = candidates[i].voteCount;\n\t\t\t\t\tid = i;\n\t\t\t\t}\n\t\t}\n\t\twinner = candidates[id].name;\n\t\twinnerParty = candidates[id].party;\n\t\twinnerVote = candidates[id].voteCount;\n\t\temit declareEvent();\n\t}\n}",
  "sourcePath": "/home/rogith/Desktop/codefun/contracts/Election.sol",
  "compiler": {
    "name": "solc",
    "version": "0.4.25+commit.59dbf8f1.Emscripten.clang"
  },
  "schemaVersion": "2.0.2",
  "updatedAt": "2020-02-01T14:56:09.846Z"
}