{
  "contractName": "Election",
  "abi": [
    {
      "constant": true,
      "inputs": [],
      "name": "winnerParty",
      "outputs": [
        {
          "name": "",
          "type": "string"
        }
      ],
      "payable": false,
      "stateMutability": "view",
      "type": "function"
    },
    {
      "constant": true,
      "inputs": [],
      "name": "candidatesCount",
      "outputs": [
        {
          "name": "",
          "type": "uint256"
        }
      ],
      "payable": false,
      "stateMutability": "view",
      "type": "function"
    },
    {
      "constant": true,
      "inputs": [
        {
          "name": "",
          "type": "uint256"
        }
      ],
      "name": "candidates",
      "outputs": [
        {
          "name": "id",
          "type": "uint256"
        },
        {
          "name": "name",
          "type": "string"
        },
        {
          "name": "party",
          "type": "string"
        },
        {
          "name": "region",
          "type": "string"
        },
        {
          "name": "voteCount",
          "type": "uint256"
        }
      ],
      "payable": false,
      "stateMutability": "view",
      "type": "function"
    },
    {
      "constant": true,
      "inputs": [],
      "name": "winnerVote",
      "outputs": [
        {
          "name": "",
          "type": "uint256"
        }
      ],
      "payable": false,
      "stateMutability": "view",
      "type": "function"
    },
    {
      "constant": true,
      "inputs": [],
      "name": "startElection",
      "outputs": [
        {
          "name": "",
          "type": "bool"
        }
      ],
      "payable": false,
      "stateMutability": "view",
      "type": "function"
    },
    {
      "constant": true,
      "inputs": [],
      "name": "resultsDeclared",
      "outputs": [
        {
          "name": "",
          "type": "bool"
        }
      ],
      "payable": false,
      "stateMutability": "view",
      "type": "function"
    },
    {
      "constant": true,
      "inputs": [
        {
          "name": "",
          "type": "address"
        }
      ],
      "name": "loggedUser",
      "outputs": [
        {
          "name": "",
          "type": "string"
        }
      ],
      "payable": false,
      "stateMutability": "view",
      "type": "function"
    },
    {
      "constant": true,
      "inputs": [
        {
          "name": "",
          "type": "address"
        }
      ],
      "name": "voters",
      "outputs": [
        {
          "name": "",
          "type": "bool"
        }
      ],
      "payable": false,
      "stateMutability": "view",
      "type": "function"
    },
    {
      "constant": true,
      "inputs": [],
      "name": "winner",
      "outputs": [
        {
          "name": "",
          "type": "string"
        }
      ],
      "payable": false,
      "stateMutability": "view",
      "type": "function"
    },
    {
      "inputs": [],
      "payable": false,
      "stateMutability": "nonpayable",
      "type": "constructor"
    },
    {
      "anonymous": false,
      "inputs": [
        {
          "indexed": true,
          "name": "_candidateId",
          "type": "uint256"
        }
      ],
      "name": "votedEvent",
      "type": "event"
    },
    {
      "anonymous": false,
      "inputs": [
        {
          "indexed": false,
          "name": "_name",
          "type": "string"
        }
      ],
      "name": "addEvent",
      "type": "event"
    },
    {
      "anonymous": false,
      "inputs": [],
      "name": "declareEvent",
      "type": "event"
    },
    {
      "anonymous": false,
      "inputs": [],
      "name": "loginEvent",
      "type": "event"
    },
    {
      "anonymous": false,
      "inputs": [],
      "name": "startEvent",
      "type": "event"
    },
    {
      "constant": false,
      "inputs": [
        {
          "name": "_candidateId",
          "type": "uint256"
        }
      ],
      "name": "vote",
      "outputs": [],
      "payable": false,
      "stateMutability": "nonpayable",
      "type": "function"
    },
    {
      "constant": false,
      "inputs": [
        {
          "name": "_name",
          "type": "string"
        },
        {
          "name": "_party",
          "type": "string"
        },
        {
          "name": "_region",
          "type": "string"
        }
      ],
      "name": "addCandidate",
      "outputs": [],
      "payable": false,
      "stateMutability": "nonpayable",
      "type": "function"
    },
    {
      "constant": false,
      "inputs": [
        {
          "name": "_data",
          "type": "string"
        }
      ],
      "name": "loginUser",
      "outputs": [],
      "payable": false,
      "stateMutability": "nonpayable",
      "type": "function"
    },
    {
      "constant": false,
      "inputs": [],
      "name": "beginElection",
      "outputs": [],
      "payable": false,
      "stateMutability": "nonpayable",
      "type": "function"
    },
    {
      "constant": false,
      "inputs": [],
      "name": "declare",
      "outputs": [],
      "payable": false,
      "stateMutability": "nonpayable",
      "type": "function"
    }
  ],
  "bytecode": "0x60806040526000600260006101000a81548160ff0219169083151502179055506000600260016101000a81548160ff0219169083151502179055503480156200004757600080fd5b50620001036040805190810160405280600b81526020017f43616e64696461746520310000000000000000000000000000000000000000008152506040805190810160405280600781526020017f50617274792031000000000000000000000000000000000000000000000000008152506040805190810160405280600881526020017f526567696f6e20310000000000000000000000000000000000000000000000008152506200033a640100000000026401000000009004565b620001be6040805190810160405280600b81526020017f43616e64696461746520320000000000000000000000000000000000000000008152506040805190810160405280600781526020017f50617274792032000000000000000000000000000000000000000000000000008152506040805190810160405280600881526020017f526567696f6e20320000000000000000000000000000000000000000000000008152506200033a640100000000026401000000009004565b620002796040805190810160405280600b81526020017f43616e64696461746520330000000000000000000000000000000000000000008152506040805190810160405280600781526020017f50617274792033000000000000000000000000000000000000000000000000008152506040805190810160405280600881526020017f526567696f6e20330000000000000000000000000000000000000000000000008152506200033a640100000000026401000000009004565b620003346040805190810160405280600b81526020017f43616e64696461746520340000000000000000000000000000000000000000008152506040805190810160405280600781526020017f50617274792034000000000000000000000000000000000000000000000000008152506040805190810160405280600881526020017f526567696f6e20340000000000000000000000000000000000000000000000008152506200033a640100000000026401000000009004565b62000553565b60076000815480929190600101919050555060a06040519081016040528060075481526020018481526020018381526020018281526020016000815250600360006007548152602001908152602001600020600082015181600001556020820151816001019080519060200190620003b4929190620004a4565b506040820151816002019080519060200190620003d3929190620004a4565b506060820151816003019080519060200190620003f2929190620004a4565b50608082015181600401559050507ffeaa3394626e6980c250ba082b4a3faae2e1157d0edacfc7514538999dc023f8836040518080602001828103825283818151815260200191508051906020019080838360005b838110156200046457808201518184015260208101905062000447565b50505050905090810190601f168015620004925780820380516001836020036101000a031916815260200191505b509250505060405180910390a1505050565b828054600181600116156101000203166002900490600052602060002090601f016020900481019282601f10620004e757805160ff191683800117855562000518565b8280016001018555821562000518579182015b8281111562000517578251825591602001919060010190620004fa565b5b5090506200052791906200052b565b5090565b6200055091905b808211156200054c57600081600090555060010162000532565b5090565b90565b6112ae80620005636000396000f3006080604052600436106100d0576000357c0100000000000000000000000000000000000000000000000000000000900463ffffffff1680630121b93f146100d5578063014f2a3b146101025780631b95f76b146101925780631c14ce5e146101a95780632d35a8a2146102125780633477ee2e1461023d578063495417f5146103c95780634ccde688146103f457806362d73eb81461040b578063965473bd1461043a57806396fb833114610469578063a3ec138d14610525578063ad71f8dc14610580578063dfbf53ae14610675575b600080fd5b3480156100e157600080fd5b5061010060048036038101908080359060200190929190505050610705565b005b34801561010e57600080fd5b50610117610827565b6040518080602001828103825283818151815260200191508051906020019080838360005b8381101561015757808201518184015260208101905061013c565b50505050905090810190601f1680156101845780820380516001836020036101000a031916815260200191505b509250505060405180910390f35b34801561019e57600080fd5b506101a76108c5565b005b3480156101b557600080fd5b50610210600480360381019080803590602001908201803590602001908080601f0160208091040260200160405190810160405280939291908181526020018383808284378201915050505050509192919290505050610966565b005b34801561021e57600080fd5b50610227610a41565b6040518082815260200191505060405180910390f35b34801561024957600080fd5b5061026860048036038101908080359060200190929190505050610a47565b60405180868152602001806020018060200180602001858152602001848103845288818151815260200191508051906020019080838360005b838110156102bc5780820151818401526020810190506102a1565b50505050905090810190601f1680156102e95780820380516001836020036101000a031916815260200191505b50848103835287818151815260200191508051906020019080838360005b83811015610322578082015181840152602081019050610307565b50505050905090810190601f16801561034f5780820380516001836020036101000a031916815260200191505b50848103825286818151815260200191508051906020019080838360005b8381101561038857808201518184015260208101905061036d565b50505050905090810190601f1680156103b55780820380516001836020036101000a031916815260200191505b509850505050505050505060405180910390f35b3480156103d557600080fd5b506103de610c45565b6040518082815260200191505060405180910390f35b34801561040057600080fd5b50610409610c4b565b005b34801561041757600080fd5b50610420610de1565b604051808215151515815260200191505060405180910390f35b34801561044657600080fd5b5061044f610df4565b604051808215151515815260200191505060405180910390f35b34801561047557600080fd5b506104aa600480360381019080803573ffffffffffffffffffffffffffffffffffffffff169060200190929190505050610e07565b6040518080602001828103825283818151815260200191508051906020019080838360005b838110156104ea5780820151818401526020810190506104cf565b50505050905090810190601f1680156105175780820380516001836020036101000a031916815260200191505b509250505060405180910390f35b34801561053157600080fd5b50610566600480360381019080803573ffffffffffffffffffffffffffffffffffffffff169060200190929190505050610eb7565b604051808215151515815260200191505060405180910390f35b34801561058c57600080fd5b50610673600480360381019080803590602001908201803590602001908080601f0160208091040260200160405190810160405280939291908181526020018383808284378201915050505050509192919290803590602001908201803590602001908080601f0160208091040260200160405190810160405280939291908181526020018383808284378201915050505050509192919290803590602001908201803590602001908080601f0160208091040260200160405190810160405280939291908181526020018383808284378201915050505050509192919290505050610ed7565b005b34801561068157600080fd5b5061068a611038565b6040518080602001828103825283818151815260200191508051906020019080838360005b838110156106ca5780820151818401526020810190506106af565b50505050905090810190601f1680156106f75780820380516001836020036101000a031916815260200191505b509250505060405180910390f35b6000803373ffffffffffffffffffffffffffffffffffffffff1673ffffffffffffffffffffffffffffffffffffffff16815260200190815260200160002060009054906101000a900460ff1615151561075d57600080fd5b60008111801561076f57506007548111155b151561077a57600080fd5b60016000803373ffffffffffffffffffffffffffffffffffffffff1673ffffffffffffffffffffffffffffffffffffffff16815260200190815260200160002060006101000a81548160ff0219169083151502179055506003600082815260200190815260200160002060040160008154809291906001019190505550807ffff3c900d938d21d0990d786e819f29b8d05c1ef587b462b939609625b684b1660405160405180910390a250565b60058054600181600116156101000203166002900480601f0160208091040260200160405190810160405280929190818152602001828054600181600116156101000203166002900480156108bd5780601f10610892576101008083540402835291602001916108bd565b820191906000526020600020905b8154815290600101906020018083116108a057829003601f168201915b505050505081565b6000803373ffffffffffffffffffffffffffffffffffffffff1673ffffffffffffffffffffffffffffffffffffffff16815260200190815260200160002060009054906101000a900460ff1615151561091d57600080fd5b6001600260016101000a81548160ff0219169083151502179055507fe2fd38e98ccbd9fc621f4dcf0305e3efbf932ba54747f45f9956cc507e8c21a960405160405180910390a1565b6000803373ffffffffffffffffffffffffffffffffffffffff1673ffffffffffffffffffffffffffffffffffffffff16815260200190815260200160002060009054906101000a900460ff161515156109be57600080fd5b80600160003373ffffffffffffffffffffffffffffffffffffffff1673ffffffffffffffffffffffffffffffffffffffff1681526020019081526020016000209080519060200190610a119291906110d6565b507fdc6ea1817380997e1716b06fe44f555e5a79c5374cb1745ffa7d46ad9a8210fe60405160405180910390a150565b60075481565b6003602052806000526040600020600091509050806000015490806001018054600181600116156101000203166002900480601f016020809104026020016040519081016040528092919081815260200182805460018160011615610100020316600290048015610af95780601f10610ace57610100808354040283529160200191610af9565b820191906000526020600020905b815481529060010190602001808311610adc57829003601f168201915b505050505090806002018054600181600116156101000203166002900480601f016020809104026020016040519081016040528092919081815260200182805460018160011615610100020316600290048015610b975780601f10610b6c57610100808354040283529160200191610b97565b820191906000526020600020905b815481529060010190602001808311610b7a57829003601f168201915b505050505090806003018054600181600116156101000203166002900480601f016020809104026020016040519081016040528092919081815260200182805460018160011615610100020316600290048015610c355780601f10610c0a57610100808354040283529160200191610c35565b820191906000526020600020905b815481529060010190602001808311610c1857829003601f168201915b5050505050908060040154905085565b60065481565b60008060008060003373ffffffffffffffffffffffffffffffffffffffff1673ffffffffffffffffffffffffffffffffffffffff16815260200190815260200160002060009054906101000a900460ff16151515610ca857600080fd5b6001600260006101000a81548160ff0219169083151502179055506000925060019150600190505b60075481111515610d23576003600082815260200190815260200160002060040154831015610d1657600360008281526020019081526020016000206004015492508091505b8080600101915050610cd0565b6003600083815260200190815260200160002060010160049080546001816001161561010002031660029004610d5a929190611156565b506003600083815260200190815260200160002060020160059080546001816001161561010002031660029004610d92929190611156565b5060036000838152602001908152602001600020600401546006819055507f4261c2e20a70a449ce34d9be45bc3eb20791e618ec30d24b5dc9e6ac53ccc18a60405160405180910390a1505050565b600260019054906101000a900460ff1681565b600260009054906101000a900460ff1681565b60016020528060005260406000206000915090508054600181600116156101000203166002900480601f016020809104026020016040519081016040528092919081815260200182805460018160011615610100020316600290048015610eaf5780601f10610e8457610100808354040283529160200191610eaf565b820191906000526020600020905b815481529060010190602001808311610e9257829003601f168201915b505050505081565b60006020528060005260406000206000915054906101000a900460ff1681565b60076000815480929190600101919050555060a06040519081016040528060075481526020018481526020018381526020018281526020016000815250600360006007548152602001908152602001600020600082015181600001556020820151816001019080519060200190610f4f9291906111dd565b506040820151816002019080519060200190610f6c9291906111dd565b506060820151816003019080519060200190610f899291906111dd565b50608082015181600401559050507ffeaa3394626e6980c250ba082b4a3faae2e1157d0edacfc7514538999dc023f8836040518080602001828103825283818151815260200191508051906020019080838360005b83811015610ff9578082015181840152602081019050610fde565b50505050905090810190601f1680156110265780820380516001836020036101000a031916815260200191505b509250505060405180910390a1505050565b60048054600181600116156101000203166002900480601f0160208091040260200160405190810160405280929190818152602001828054600181600116156101000203166002900480156110ce5780601f106110a3576101008083540402835291602001916110ce565b820191906000526020600020905b8154815290600101906020018083116110b157829003601f168201915b505050505081565b828054600181600116156101000203166002900490600052602060002090601f016020900481019282601f1061111757805160ff1916838001178555611145565b82800160010185558215611145579182015b82811115611144578251825591602001919060010190611129565b5b509050611152919061125d565b5090565b828054600181600116156101000203166002900490600052602060002090601f016020900481019282601f1061118f57805485556111cc565b828001600101855582156111cc57600052602060002091601f016020900482015b828111156111cb5782548255916001019190600101906111b0565b5b5090506111d9919061125d565b5090565b828054600181600116156101000203166002900490600052602060002090601f016020900481019282601f1061121e57805160ff191683800117855561124c565b8280016001018555821561124c579182015b8281111561124b578251825591602001919060010190611230565b5b509050611259919061125d565b5090565b61127f91905b8082111561127b576000816000905550600101611263565b5090565b905600a165627a7a7230582077bd3419efd6aa0244a9cf3a2c2c39389a94bd3ec9427aeb6d5da52b4ad546af0029",
  "source": "pragma solidity ^0.4.24;\n\ncontract Election {\n\n    struct Candidate {\n    \tuint id;\n    \tstring name;\n\t\tstring party;\n\t\tstring region;\n    \tuint voteCount;\n    }\n    mapping(address => bool)public voters;\n\tmapping(address => string)public loggedUser;\n\tbool public resultsDeclared = false;\n\tbool public startElection = false;\n    mapping(uint => Candidate) public candidates;\n\tstring public winner;\n\tstring public winnerParty;\n\tuint public winnerVote;\n    uint public candidatesCount;\n    event votedEvent (\n    \tuint indexed _candidateId\n    \t);\n \tevent addEvent (\n    \tstring _name\n    \t);\n\tevent declareEvent();\n\tevent loginEvent();\n\tevent startEvent();\n\n    constructor () public {\n   \t\taddCandidate(\"Candidate 1\",\"Party 1\",\"Region 1\");\n   \t\taddCandidate(\"Candidate 2\",\"Party 2\",\"Region 2\");\n\t\taddCandidate(\"Candidate 3\",\"Party 3\",\"Region 3\");\n   \t\taddCandidate(\"Candidate 4\",\"Party 4\",\"Region 4\");\n    }\n    \n\tfunction vote (uint _candidateId) public{\n    \trequire(!voters[msg.sender]);\n    \trequire(_candidateId >0 && _candidateId <= candidatesCount);\n    \tvoters[msg.sender] = true;\n    \tcandidates[_candidateId].voteCount++;\n    \temit votedEvent(_candidateId);\n    }\n\n    function addCandidate (string memory _name,string memory _party,string _region) public {\n    \tcandidatesCount ++;\n    \tcandidates[candidatesCount] = Candidate(candidatesCount,_name,_party,_region,0);\n\t\temit addEvent(_name);\n    }\n\n   \n\tfunction loginUser(string memory _data)public{\n\t\trequire(!voters[msg.sender]);\n\t\tloggedUser[msg.sender] = _data;\n\t\temit loginEvent();\n\t}\n\tfunction beginElection()\n\t{\n\t\trequire(!voters[msg.sender]);\n\t\tstartElection = true;\n\t\temit startEvent();\n\t}\n\tfunction declare() public{\n\t\trequire(!voters[msg.sender]);\n    \tresultsDeclared = true;\n\t\tuint max = 0;\n\t\tuint id = 1;\n\t\tfor(uint i = 1;i <= candidatesCount;i++)\n\t\t{\n\t\t\tif(max < candidates[i].voteCount)\n\t\t\t\t{\n\t\t\t\t\tmax = candidates[i].voteCount;\n\t\t\t\t\tid = i;\n\t\t\t\t}\n\t\t}\n\t\twinner = candidates[id].name;\n\t\twinnerParty = candidates[id].party;\n\t\twinnerVote = candidates[id].voteCount;\n\t\temit declareEvent();\n\t}\n}",
  "sourcePath": "/home/rogith/Desktop/Evoting/contracts/Election.sol",
  "compiler": {
    "name": "solc",
    "version": "0.4.26+commit.4563c3fc.Emscripten.clang"
  },
  "schemaVersion": "3.3.0",
  "updatedAt": "2020-11-10T11:35:54.905Z",
  "networkType": "ethereum",
  "devdoc": {
    "methods": {}
  },
  "userdoc": {
    "methods": {}
  }
}